:020000040000FA
:06000000636B10EF00F03D
:020006000000F8
:040008006CEF00F0A9
:10002000956A93809398C80ED56E900EF26EF18CFF
:10003000636720EF00F03F0E8C6E8A9818EF00F097
:10004000010E636337EF00F0060E8C6E8A88E20EB5
:10005000D66EF29468EC00F08A98760E00000000EC
:100060000000D66EF29468EC00F020EF00F0020E73
:10007000636348EF00F05B0E8C6E8A78B20E00006E
:1000800000000000D66EF29468EC00F037EF00F04C
:10009000030E63635FEF00F04F0E8C6E8A887E0E56
:1000A000D66EF29468EC00F08A98DA0E0000000038
:1000B0000000D66EF29468EC00F048EF00F0040EF9
:1000C000636318EF00F0660E8C6E8A885FEF00F0B5
:1000D000F2A468EF00F01200F292632B050E636148
:0400E000636B10003E
:020000040030CA
:0100010000FE
:0100020018E5
:010003001EDE
:010005008179
:010006008178
:00000001FF
